:100000000C94EB030C9413040C9413040C9413043D
:100010000C9413040C9413040C9413040C94130404
:100020000C9413040C9413040C9413040C941304F4
:100030000C9413040C9413040C9413040C941304E4
:100040000C943B120C9413040C94AB120C94851278
:100050000C9413040C9413040C9413040C941304C4
:100060000C94DD120C94130400407A10F35A00A093
:10007000724E18090010A5D4E80000E87648170071
:1000800000E40B54020000CA9A3B000000E1F505B1
:10009000000080969800000040420F000000A086FB
:1000A00001000000102700000000E803000000002D
:1000B0006400000000000A000000000001000000D1
:1000C00000002C76D888DC674F0823DFC1DFAE59EB
:1000D000E1B1B796E5E3E453C63AE651997696E87E
:1000E000E6C28426EB898C9B62ED407C6FFCEFBC02
:1000F0009C9F40F2BAA56FA5F490055A2AF75C932D
:100100006B6CF9676DC11BFCE0E40D47FEF520E662
:10011000B500D0ED902E0300943577050080841E45
:10012000080000204E0A000000C80C333333330FA0
:10013000986E12831141EF8D2114893BE65516CF3D
:10014000FEE6DB18D1844B381BF77C1D901DA4BB49
:10015000E424203284725E228100C9F124ECA1E5FE
:100160003D270000000023002600290000000000B9
:10017000240027002A0000000000250028002B0092
:10018000040404040404040402020202020203033D
:100190000303030301020408102040800102040845
:1001A00010200102040810200000000800020100D5
:1001B0000003040700000000000000005F000303CC
:1001C0000404030505100FFEFD0BFD0BFE01C0042A
:1001D0004005FA2005008C142109B28514074ACC89
:1001E00000220843BD15112D012316A784789160C4
:1001F0002418099922C148C814094682911800247C
:1002000017D77C78C18A24328A5062C4222D4209D1
:100210004D2292620C00251FBC845DC2A084284A36
:100220001445A292505814138724C190281812C55F
:100230006292605004261ABC847D7491582416C5BD
:1002400021730869141A856434E188562A890027C5
:100250000641BD1304280DD47475A19028A4B79845
:100260002C18290ED47415C1982C26D229244A039F
:100270002A0B55B4562929934C21002B0B778C78E7
:10028000E1B45B380D002C085275141609002D07D7
:10029000249C1587002E06328514062F0DB4847514
:1002A000996249B1A4580C00300DB7845833891AAB
:1002B000BF49D446003109B58558129AFE44320D23
:1002C000B7843824514DAAA8DBE1103310B7843825
:1002D00024514D2A9491A534D284043411B78498C2
:1002E000C2B5882C220A894292A354483511B7849A
:1002F000389652386524994A69A40909003610B71E
:10030000845824118D2A59A9B195242400370FB798
:1003100084180FC1484C2A942A4AD5003811B78452
:1003200038A4118D6689912236A61105003910B7BF
:10033000845814518DADB222A5914424003A07721D
:10034000851426033B09927514268B04003C0A771A
:100350008CD8C1D1F272003D07379C18F7033E0AD2
:10036000778C18E14D8B61003F0EB684371411492C
:1003700028538C033501401DBD849ED6E14836923A
:100380002849482A149188229268992849867248F7
:10039000EC20024117BA849B72883C228E8843D19C
:1003A000983026B4454551C98C004215B9841A3796
:1003B00025994826523B0925428950223B8C00430F
:1003C00017BA847B95C850229ECF2172881C2207C1
:1003D0008923435909004419BB841C87A070241544
:1003E0008925628958229688255291707288014524
:1003F00017B9841A078950228D885244C1A228282F
:100400004A91468407024616B9841A078950228DFC
:10041000885244C1A228280ACAC554004718BB8480
:100420007C95D050248EC82372901C243C8BA4A2AF
:10043000D99014014818BB841C348A5424154945AA
:1004400052D1412415494552915442234909B4855A
:10045000171491FE424A0EB7847944A95E44129162
:1004600024B4064B17BB841C249230288B8AC2927A
:10047000785932150D6533E184544C0EB9841A64F1
:10048000B9BE46A411E181004D24BD841E54CA7436
:10049000341D45641151441611456411514812121E
:1004A00085242151481212C5544622024E1CBB8499
:1004B0001CD3C934440C4566A1902C1413A54D429D
:1004C00041527414968C23004F12BB847CC5D948CA
:1004D0002A91F32E918A66C31A005012B9841A87A2
:1004E000906C22940825B2894DAE990A5119EB6C93
:1004F0007CC5D9482A91F332938824A211B10E12F7
:100500008527F109005217BB841C87A06C2694092B
:10051000658A5699502654134A6A13005312B984B7
:100520005A94C84C228D482364E7319152025416E4
:10053000BA841B879268A62D2887C82172881C223E
:1005400087C869005518BB841CC48938240E8943A8
:10055000E29038240E8943E298305A035618BA8440
:100560001BB48934248DC982B2A02C2A094BC292B3
:10057000B81C22045724BD841E14CA44260BC96427
:1005800021992C2689488292882428894882928839
:10059000242A13CBC43219005817BB841C25CA5017
:1005A000268C8AE292F83C220F498332E184545926
:1005B00017BA841BB48934260BCAA292B0242E87A2
:1005C000C82172889C065A0FB8841987E19036D5E5
:1005D0003A230E0F035B09D4741526FD27025C0F26
:1005E000B68417D170341C0D47C3D170005D09D497
:1005F000741524FD27035E0F77A478E1E830129389
:1006000088621199005F0617741707600834C516D1
:10061000326100610E788459349158569149442BC7
:10062000036213B9841A735D66234589502294C806
:1006300044111200630E77845824118D2A8C88444B
:1006400014006413B984BA736D1391682294082559
:100650004291683619650E78845934914478A8CB54
:10066000441500660DB6845623896E25A16E2400BC
:100670006710B76CB8928A8C26A9844D57A1A40242
:100680006811B9841A735D662335914C2413C9240B
:100690000C690AA4843522E9482F046A0CD56A75CE
:1006A000EA337DA34826006B11B88419639D262286
:1006B00015195122134946036C09B4841523FD0B07
:1006C000016D127E841F93D16C3452539229C994C8
:1006D000642A1C6E1079841A93D9484D2413C94496
:1006E0003209036F0E788459349144C82811C948DF
:1006F000007013A96C1A93D94851229408252395A8
:10070000995C4C057113A96C599490682294082542
:1007100042916836912B13720B7784179315558D80
:100720003400730A7684373722DB0500740FA68401
:1007300056D1A0AC24D41411852600751179841AE1
:10074000A3914C2413C944329168361976107883EA
:100750001794892C248B498292A8580677187D8398
:100760001C14CA44260BC9643149441294442451D0
:1007700099582603780F788419A389484695D26240
:1007800092D1007914A86B1794892C248B498292FA
:10079000A8581C9404A7007A0876841737BD1D7BDF
:1007A0000DD57476A298B6D4A04C312A7C07B187B7
:1007B0001807027D0FD57416D2A04C311A8B690B25
:1007C000C9007E0927A43813CA040000000004FFF2
:1007D000FF000000FC1311241FBECFEFD8E0DEBFE6
:1007E000CDBF11E0A0E0B1E0E0EAFCE302C005907B
:1007F0000D92A23DB107D9F728E0A2EDB1E001C00A
:100800001D92A530B207E1F713E0CBEED3E004C0B0
:100810002197FE010E944F1CCA3ED107C9F70E94D2
:10082000FD140C944E1E0C940000662329F06A30CF
:1008300019F0862F90E008958FEF9FEF0895AF9203
:10084000BF92CF92DF92EF92FF920F93CF93DF93FD
:10085000EC01DA017901942F9770E1E0F0E09F015B
:10086000092E01C0220F0A94EAF7522F6E018AE87E
:10087000C80ED11CF601808140E0823018F4422F6E
:10088000813049F15D01F8EFAF22E8ADF9AD288183
:100890003981D90150968C918A9D90018B9D300DA4
:1008A0001124620F731FDF01A60FB71F01111AC0B9
:1008B000EA0EFB1E8C91842B85278D93AE15BF0508
:1008C000C9F7DF91CF910F91FF90EF90DF90CF901C
:1008D000BF90AF90089550E0D5CF440F550FE1146D
:1008E000F10479F33C91342B35273C939F5F97704B
:1008F000E1E0EE1AF1089111F0CF2CAD3DADA20F61
:10090000B31FF6018081823028F4813009F051E074
:1009100041E0E5CF51E0E3CF80E0089590E080E052
:100920000895CF93DF93CBE6D7E08FAFEAADFBAD71
:100930000190F081E02D8FE697E00995EAADFBADDF
:100940000280F381E02D8FE697E0DF91CF9109944B
:100950009B01DC011896ED91FC9141E067E109945F
:10096000833081F028F4813099F08230A9F0089525
:100970008730A9F08830C9F08430B1F480918000CC
:100980008F7D03C0809180008F77809380000895D1
:1009900084B58F7784BD089584B58F7DFBCF80911A
:1009A000B0008F778093B00008958091B0008F7D64
:1009B000F9CF1F93CF93DF93282F30E0F901E8554B
:1009C000FE4F8491F901EC56FE4FD491F901E058A5
:1009D000FE4FC491CC23A9F0162F81110E94B004C0
:1009E000EC2FF0E0EE0FFF1FEA58FE4FA591B491F7
:1009F0008FB7F894EC91111108C0D095DE23DC93E9
:100A00008FBFDF91CF911F910895DE2BF8CFCF9349
:100A1000DF9390E0FC01EC56FE4F249180589E4FEE
:100A2000FC0184918823D1F090E0880F991FFC018C
:100A3000E459FE4FA591B491FC01EA58FE4FC591CF
:100A4000D491623071F49FB7F8943C91822F8095D5
:100A500083238C93E8812E2B28839FBFDF91CF9136
:100A600008958FB7F894EC912E2B2C938FBFF6CF6F
:100A70003FB7F8948091BE029091BF02A091C0024E
:100A8000B091C10226B5A89B05C02F3F19F0019671
:100A9000A11DB11D3FBFBA2FA92F982F8827BC01D8
:100AA000CD01620F711D811D911D42E0660F771F00
:100AB000881F991F4A95D1F70895AF92BF92CF92A0
:100AC000DF92EF92FF920F931F93CF93DF936C010E
:100AD0007B018B01040F151FEB015E01AE18BF08EF
:100AE000C017D10759F06991D601ED91FC910190A1
:100AF000F081E02DC6010995892B79F7C501DF91B9
:100B0000CF911F910F91FF90EF90DF90CF90BF900A
:100B1000AF900895FC01538D448D252F30E0842F34
:100B200090E0821B930B541710F0CF960895019715
:100B30000895FC01918D828D981761F0A28DAE0F02
:100B4000BF2FB11D5D968C91928D9F5F9F73928F89
:100B500090E008958FEF9FEF0895FC01918D828DB5
:100B6000981731F0828DE80FF11D858D90E0089582
:100B70008FEF9FEF0895FC01918D228D892F90E0DA
:100B8000805C9F4F821B91098F739927089582EC97
:100B900092E00E94BB0521E0892B09F420E0822F1E
:100BA000089580E090E0892B29F00E94C70581110B
:100BB0000C9400000895FC01A48DA80FB92FB11D5D
:100BC000A35ABF4F2C91848D90E001968F73992783
:100BD000848FA689B7892C93A089B1898C91837061
:100BE00080648C93938D848D981306C00288F3895A
:100BF000E02D80818F7D80830895EF92FF920F9387
:100C00001F93CF93DF93EC0181E0888F9B8D8C8DB8
:100C100098131AC0E889F989808185FF15C09FB7AC
:100C2000F894EE89FF896083E889F989808183706F
:100C3000806480839FBF81E090E0DF91CF911F911E
:100C40000F91FF90EF900895F62E0B8D10E00F5F3F
:100C50001F4F0F731127E02E8C8D8E110CC00FB615
:100C600007FCFACFE889F989808185FFF5CFCE01AD
:100C70000E94DB05F1CFEB8DEC0FFD2FF11DE35A48
:100C8000FF4FF0829FB7F8940B8FEA89FB89808130
:100C90008062CFCFCF93DF93EC01888D8823B9F0AA
:100CA000AA89BB89E889F9898C9185FD03C0808177
:100CB00086FD0DC00FB607FCF7CF8C9185FFF2CFF4
:100CC000808185FFEDCFCE010E94DB05E9CFDF916A
:100CD000CF91089520916502260F3327331F2132CB
:100CE0003105ECF420918B02FC0190E080E024308F
:100CF00069F082E00895A09165022191AC014D5BFD
:100D00005D4FA40FB52FB11D2C930196861798F354
:100D100080916502680F6093650280E0089581E02C
:100D2000089510928B0281E080938D0210928C02C4
:100D300061E082E10E94D90461E083E10E94D9046C
:100D4000E9EBF0E080818E7F808380818D7F8083DE
:100D500088E48093B80085E48093BC000895CF9325
:100D6000DF9391E0909342028823B9F0C091B800DC
:100D7000D091BA008091BC008A7B8093BC0060E077
:100D800082E10E94D90460E083E10E94D9040E94BC
:100D90009106D093BA00C093B800DF91CF91089527
:100DA000089508950895E0913A0280913902E81774
:100DB00030F4F0E0E75EFD4F808190E008958FEF22
:100DC0009FEF089590913A02809139022FEF3FEF03
:100DD000981748F4E92FF0E0E75EFD4F208130E0FE
:100DE0009F5F90933A02C9010895809139029091D2
:100DF0003A02891B990B0895CF92DF92EF92FF92EE
:100E00000F931F93CF93DF937C01CB018A01209135
:100E10001802222389F0EB016B01C40ED51ECC15FC
:100E2000DD0569F06991D701ED91FC910190F081A8
:100E3000E02DC7010995F3CF642F0E946A06C8010F
:100E4000DF91CF911F910F91FF90EF90DF90CF90A6
:100E50000895CF93DF931F92CDB7DEB769832091BA
:100E600018022223F9F020913B02203258F021E0B1
:100E700030E0FC013383228390E080E00F90DF912B
:100E8000CF91089580913C02E82FF0E0E850FE4FAA
:100E9000998190838F5F80933C0280933B0281E035
:100EA00090E0ECCF61E0CE0101960E946A06F7CF98
:100EB000DC011A96ED91FC9130E020E00994DC0110
:100EC0001496ED91FC9130E020E040E060E109945F
:100ED000DC011696ED91FC9130E020E040E069E104
:100EE0000994DC011696ED91FC9130E020E040E0A1
:100EF00068E109949A01DC011696ED91FC91462F68
:100F000067E10994EF92FF920F931F93CF93DF93C2
:100F10001F92CDB7DEB77C018B01D8016C91673190
:100F200029F150F46531A0F40F90DF91CF911F911A
:100F30000F91FF90EF9008956A3118F16E3FA1F77D
:100F4000F8014181498369E2C7010E9458070BC03B
:100F5000F80141814983D7011696ED91FC9130E06B
:100F600020E0C70109950E5F1F4FD7CFF80181819F
:100F70008983AE014F5F5F4F61E0C7010E947A072E
:100F8000F2CF0F5F1F4FD7011696ED91FC9130E025
:100F900020E040E0C7010995C0CF462FDC0116963E
:100FA000ED91FC9130E020E066E10994462FDC01F0
:100FB0001696ED91FC9130E020E065E10994EF9206
:100FC000FF920F931F93CF93DF93EC01042F7901CE
:100FD0006D3009F446C050F46B30C9F1693009F442
:100FE0009FC06A3009F465C080E046C06E3009F4E5
:100FF00052C06F3099F70E947107F7011381110FEA
:10100000110F110F6C89160F60E4CE010E94D607F4
:10101000612F62956F706061CE010E94D607612FCB
:101020006F70CE010E94CD07F7016481606BCE0125
:101030000E94CD07F701408151816281660F660FE2
:10104000660FCE010E947A070150A1F72EC069E118
:1010500071E0442311F064E171E0CE010E94820747
:101060000AC0411110C06DE071E00E948207E88162
:10107000F98182898C8B81E0DF91CF911F910F9153
:10108000FF90EF90089566E071E00E948207E8818A
:10109000F9818389EFCF0E94710761E8CE010E9438
:1010A000D607602FCE010E94CD07CE010E946807AF
:1010B000E2CFEA85FB8530E020E040E068E2CE0147
:1010C0000995EE81FF8130E020E040E064E1CE014F
:1010D000099541E06BE4CE010E945807E881F9814F
:1010E000448169E2CE010E94580740E06BE4CE01E2
:1010F0000E945807E881F981448169E2CE010E948B
:10110000580741E06BE4CE010E945807E881F9815D
:10111000458169E2CE010E9458076EE171E09DCFE2
:1011200083E591E0998388831C8AA5CFDC0118961A
:10113000ED91FC9130E020E040E069E10994DC01B0
:101140001896ED91FC9130E020E040E068E10994D0
:10115000CF93DF931F92CDB7DEB76983BE016F5F78
:101160007F4F0E94A8040F90DF91CF910895EF92D6
:10117000FF921F93CF93DF93EC01162F7A010E9409
:101180009F0860E4CE010E94A808E885F9859701D0
:10119000412F67E1CE010995CE01DF91CF911F91DB
:1011A000FF90EF900C949608EF92FF921F93CF93CD
:1011B000DF93EC01142F7901663181F138F4643149
:1011C00009F44BC0653179F080E022C06831C9F183
:1011D00050F16931C9F78091F701882391F1CE016F
:1011E0000E9496082EC08091F701882319F0CE0145
:1011F0000E949608CE010E949F0860E0CE010E94E6
:10120000A808612FCE010E94A80881E08093F70111
:10121000DF91CF911F91FF90EF900895642F0E946E
:10122000A80881E0F5CF8091F701882319F0CE015D
:101230000E949608A701193138F4612FCE010E944F
:10124000B7081092F701EDCF68E1CE010E94B70810
:10125000185188E1E80EF11CEDCF8E898F3F11F413
:1012600088E78E8BE885F9859701412F64E1CE01EF
:10127000DF91CF911F91FF90EF9009940F93FC01A4
:10128000E05CFF4F0190F081E02D4E1B5F0BDC0115
:10129000D496ED91FC9109950F910895CF93DF932A
:1012A000FC01A081B18182AD90E09C0143E0220F5E
:1012B000331F4A95E1F737AF26AF50962C915097E0
:1012C00048E0249F9001112435AF24AF23AD30E0D6
:1012D000B90153E0660F771F5A95E1F7EF01C05C43
:1012E000DF4F7983688351964C915197E901C80F7C
:1012F000D91F50E04C175D0718F4CA01821B930BED
:10130000EF01CE5BDF4F79836883229623E0880F5D
:10131000991F2A95E1F7860F971F99838883229654
:1013200054968D919C91559799838883E85BFF4FE4
:1013300056968D919C9191838083DF91CF910895F2
:101340000F931F93FC01E25BFF4F0190F081E02DB2
:10135000DC01A05BBF4F0D90BC91A02D4A175B072D
:1013600040F4E017F10748F00417150730F080E06B
:1013700019C0E017F107C0F3FACFFC01E65BFF4F9D
:1013800040815181845B9F4FFC018081918168176E
:10139000790758F481E04217530720F081E02617BF
:1013A000370728F71F910F91089542175307B0F39D
:1013B000DECF2F923F924F925F926F927F928F92E9
:1013C0009F92AF92BF92CF92DF92EF92FF920F93D4
:1013D0001F93CF93DF93CDB7DEB72A970FB6F8945C
:1013E000DEBF0FBECDBF9A878987865B9F4F9A83EA
:1013F0008983FC0111821082E985FA85EA5BFF4F3F
:101400004080518029853A85245B3F4F3C832B8364
:10141000F90151824082E985FA85EE5BFF4F208019
:10142000318029853A85225B3F4F3E832D83F90128
:1014300031822082E985FA85EC5BFF4F6080718004
:1014400029853A85205B3F4F38872F83F9017182C8
:101450006082E985FA85E85AFF4FE080F180E985EE
:10146000FA85EC5AFF4FA080B180E985FA85EA5AE7
:10147000FF4FC080D180E985FA85EE5AFF4F80800A
:10148000918087019501A601B40189859A850E9402
:10149000A00929853A852C573F4F3A872987811122
:1014A0001BC0F90110822A960FB6F894DEBF0FBE5A
:1014B000CDBFDF91CF911F910F91FF90EF90DF9003
:1014C000CF90BF90AF909F908F907F906F905F90E4
:1014D0004F903F902F90089581E0E985FA858083B1
:1014E0008114910421F0E981FA8191828082A4140F
:1014F000B50420F4EB81FC81B182A0822C143D0460
:1015000020F4ED81FE81D182C082E614F70458F602
:10151000EF81F885F182E082C6CF0F93CF93DF93FE
:10152000E02FDC01AC57BF4FFC91FF2309F460C0F2
:101530002115310509F45CC02230310538F0023044
:1015400009F04AC06F5F7F4F621B730B0E2F017053
:10155000E0FD52C0FC01E25BFF4F0190F081E02D05
:101560004E175F0708F444C0FC01E05BFF4F019099
:10157000F081E02D4E175F07D8F5FC01E45BFF4FCB
:101580000190F081E02DDC01A65BBF4F0D90BC9176
:10159000A02D260F371F2617370738F56E177F0740
:1015A00018F59F0121503109A217B30708F56A17F2
:1015B0007B0708F4BD012E173F0708F4F901E61B6D
:1015C000F70BEC01AEA9BFA914960D90BC91A02D0C
:1015D0009F01FD0109950CC0033009F0B7CF4F5FA3
:1015E0005F4F421B530BB2CFBD016E177F07E0F276
:1015F000DF91CF910F910895FC01E65BFF4F0190C1
:10160000F081E02D6E177F0798F3FC01E45BFF4F3C
:101610000190F081E02D6E177F0750F7FC01E05B31
:10162000FF4F0190F081E02DDC01A25BBF4F0D90D8
:10163000BC91A02D240F351F24173507A8F44E1791
:101640005F0788F49F0121503109A217B30780F684
:101650004A175B0708F4AD012E173F0708F4F9019C
:10166000E41BF50BAECFAD014E175F0708F6EDCFCB
:10167000213069F038F0223079F0840F911D47FD58
:101680009A950895860F911D67FD9A950895841B7C
:10169000910947FD93950895861B910967FD9395E0
:1016A0000895213069F038F0223079F0861B9109D5
:1016B00067FD93950895840F911D47FD9A950895B0
:1016C000860F911D67FD9A950895841B910947FD2A
:1016D000939508953F924F925F926F927F928F926F
:1016E0009F92AF92BF92CF92DF92EF92FF920F93B1
:1016F0001F93CF93DF937C01162F442EEC01C25A27
:10170000DF4F5E806F806C018AE8C80ED11C788440
:101710007518312E711608F4372C8C809D800E853B
:10172000202F462D652D8A819B810E94380B5C01FC
:10173000202F462D652DC4010E94510BAC01442081
:1017400079F08C85F6018083232D30E0B501C70147
:101750000E948D0A171548F017196394512CD7CFA2
:101760008B858111F7CF8D85EDCF150D1E836F828F
:10177000DF91CF911F910F91FF90EF90DF90CF906D
:10178000BF90AF909F908F907F906F905F904F90A1
:101790003F900895DC011A964C911A97ED91FC91B7
:1017A0001197249130E0042E02C0359527950A94B4
:1017B000E2F7842F860F883068F031961196FC93FB
:1017C000EE93E49198E0941B01C0EE0F9A95EAF72E
:1017D0002E2B88501A968C938FEF9FEF01C0880FA5
:1017E0006A95EAF7809582230895FC01E60FF11DC2
:1017F000849190E0982F88273196E4918E0F911D67
:101800000895AF92BF92CF92DF92EF92FF920F9323
:101810001F93CF93DF9300D000D01F92CDB7DEB7D8
:101820008C01DC01DA96AC90DA97DB96EC90DB97D2
:10183000ED91FC91B188FE2CD12CC12CD801ED91F9
:10184000FC9111978089D8962D913C911C82FD8244
:101850008B83B8E08B9FC00111248C9DA0018D9DCE
:10186000500D9C9D500D1124240F351F3A83298360
:10187000D8011496ED91FC919E012F5F3F4F41E0FE
:101880006FE0C8010995F3948F2D8E198A1528F4FD
:10189000BFEFCB1ADB0AFB1488F20F900F900F906A
:1018A0000F900F90DF91CF911F910F91FF90EF90CC
:1018B000DF90CF90BF90AF900895CF92DF92EF92DC
:1018C000FF920F931F93CF93DF93EC01962F683114
:1018D00009F44BC0B901993130F49431C9F0973112
:1018E00089F080E006C0993109F461C09032C9F7EF
:1018F00081E0DF91CF911F910F91FF90EF90DF90EA
:10190000CF90089550E08FE593E00E94FC06F0CF61
:101910008C859D85AE85BF85892B8A2B8B2B71F499
:10192000E881F981A585B0E020EA36E841E050E0A1
:101930000E94F61A6C877D878E879F8710923A02E5
:101940001092390210923C0210923B020E949106C2
:1019500080ED96E0909364028093630281ED96E0BF
:101960009093680280936702C3CF2C853D854E8596
:101970005F8560E074E284EF90E00E94381B2051A4
:101980003109410951095695479537952795209377
:10199000B8008E8990E09595879591E09093180214
:1019A0008093F60110923C0210923B02A1CFD0919D
:1019B0003B02D13208F093C0C091F6010E94380575
:1019C0006B017C0180918B02811164C082E0809365
:1019D0008B0281E080938D028FEF80938A021092B8
:1019E000AF02D093AE02A8EFB1E0EEE8F2E080E003
:1019F000D8137CC01092B0028091B002CC0FC82BDB
:101A0000C093B00280918C02813009F073C01092B3
:101A10008C020E9438056B017C018091B00280939A
:101A2000BB0080913E0290913F02A0914002B09194
:101A30004102892B8A2B8B2B99F00E94380500914B
:101A40003E0210913F0220914002309141026C19F8
:101A50007D098E099F090617170728073907D8F14E
:101A60008091BC0083FDD9CF85EC8093BC000E949F
:101A700038056B017C0180918B028230E9F1809105
:101A80008A028F3F61F180918A02803241F1809118
:101A90008A0225C080913E0290913F02A0914002AF
:101AA000B0914102892B8A2B8B2B09F48BCF0E949A
:101AB000380500913E0210913F0220914002309182
:101AC00041026C197D098E099F090617170728071F
:101AD000390708F077CF80913D020E94AF0610923F
:101AE0003C0210923B021092180202CF9D919193FA
:101AF0008F5F7ECF85EEB9CF80913E0290913F02FD
:101B0000A0914002B0914102892B8A2B8B2B09F4C2
:101B1000B2CF0E94380500913E0210913F02209101
:101B20004002309141026C197D098E099F09061708
:101B300017072807390708F09ECFCDCF8F929F92C5
:101B4000AF92BF92CF92DF92EF92FF921F93CF930B
:101B5000DF93EC016C32B0F46A32E8F5683241F19F
:101B6000693209F445C080E06034B0F16F73FE0162
:101B7000E60FF11D868D8F3F71F1603108F06EC068
:101B8000642F13C06D3209F457C068F384EB860FDD
:101B9000823048F76F73C60FD11D8E8D41115AC028
:101BA00061E00E94070560E08E8D0E94D90413C099
:101BB0007C012EE1E20EF11CD0E0F70181917F0162
:101BC0008F3F31F061E0D03108F062E00E940705FC
:101BD000DF5FD63191F781E0DF91CF911F91FF90C8
:101BE000EF90DF90CF90BF90AF909F908F9008952F
:101BF000C42ED12CF12CE12C0E9438054B015C0144
:101C0000C114D104E104F10431F30E9438056819CC
:101C100079098A099B09683E73408105910580F323
:101C2000F1E0CF1AD108E108F10828EE820E23E096
:101C3000921EA11CB11CE4CF85E090E0433010F06F
:101C400082E090E0880F991F880F991F05970197F0
:101C5000F1F7C1CF62E00E940705BDCF282F30E029
:101C6000F901E855FE4F8491F901EC56FE4FF490CE
:101C7000F901E058FE4F1491112379F081110E946F
:101C8000B004E12FF0E0EE0FFF1FEE59FE4FA591DB
:101C9000B491EC91FE2281E009F480E0898F9BCF22
:101CA000CF92DF92EF92FF920F931F93CF93DF9328
:101CB0006C01EB017B01E40EF51E10E000E0CE1597
:101CC000DF0561F06991D601ED91FC910190F08101
:101CD000E02DC6010995080F191FF1CFC801DF914A
:101CE000CF911F910F91FF90EF90DF90CF900895CB
:101CF000FC0144815581608171818BE697E00C94F1
:101D0000500E2F923F924F925F926F927F928F92DE
:101D10009F92AF92BF92CF92DF92EF92FF920F937A
:101D20001F93CF93DF93CDB7DEB728970FB6F89404
:101D3000DEBF0FBECDBF7C016C0124E0C20ED11C02
:101D4000FC01E057FF4F0190F081E02DC60109959D
:101D50008C018E3F9F4F08F061C0370184E9680E07
:101D6000711CF3010190F081E02DFD83EC8357019C
:101D7000F2E9AF0EB11CF5018080918097012059E6
:101D80003F4F3B832A83F9018081813009F470C081
:101D900008F45FC0823009F476C0833009F482C051
:101DA000F701EC59FF4F9182808232962C813D8160
:101DB0003183208338978081918147969D838C83DE
:101DC0000F3F110511F008F020C1B696013611053C
:101DD00030F40134110558F0F701EE57FF4F8081C0
:101DE00091812C813D81280F391F3D832C838C816B
:101DF0009D810196FC01249121115FC090E080E05B
:101E0000EA81FB812081213009F4C1C108F4B7C106
:101E1000223009F4BEC1233009F4C3C181E090E04F
:101E200028960FB6F894DEBF0FBECDBFDF91CF91DD
:101E30001F910F91FF90EF90DF90CF90BF90AF90E8
:101E40009F908F907F906F905F904F903F902F90DA
:101E50000895F701E05AFF4F0190F081E02DC6018F
:101E600009952C813D81280F391F3D832C8398CF04
:101E7000F701E05AFF4F0190F081E02DC60109956E
:101E8000881A990A8DCFF701E05AFF4F0190F0812F
:101E9000E02DC6010995EC81FD81E81BF90BFD835E
:101EA000EC837ECFF701E05AFF4F0190F081E02DE7
:101EB000C6010995880E991E73CFEC81FD8124918E
:101EC0002017110609F09AC0CF010296009709F475
:101ED00095CFF701EE59FF4FF887EF839183808309
:101EE0001286739660818F8198850E94CA0BEF815C
:101EF000F8858087F701EA58FF4F60818F819885C8
:101F00000E94CA0B582EEF81F885818797012257CE
:101F10003F4F3D832C83F9019081EF81F8859487B1
:101F200081E0911180E0EF81F8858587F701E9581C
:101F3000FF4F8080682D8F8198850E94CA0B382EB4
:101F4000F701E858FF4F2080622D8F8198850E940D
:101F5000CA0B982EF701E758FF4F1081612F8F8130
:101F600098850E94CA0B9FEF910F01E010E0980145
:101F700001C0220F9A95EAF7821B8E83EF81F885C4
:101F8000408414140CF0C4C08A94C80101C0880FA6
:101F90008A94EAF7381AF685F983950C2A94C801D1
:101FA00001C0880F2A94EAF7282E29182F2F422DD6
:101FB000632DEF81F885828193810E94380B4C015B
:101FC000EF81F885938382832981422D632D84815B
:101FD00095810E94510BEF81F88595838483F98167
:101FE000F13009F49AC008F44EC0F23009F4A4C0EC
:101FF000F33009F4B5C0BC0194014FC0FC018491D9
:102000002C813D81280F311DF0CEF701EA57FF4F9B
:1020100080819181EC81FD81E80FF91FFD83EC83C4
:102020004F0160E0C4010E94F50B2C813D81280F17
:10203000391F3D832C8362E0C4010E94F50B34E01C
:10204000830E911C8017910760F3EC81FD818491D0
:1020500090E0982F88273196E4918E2B009709F411
:10206000CDCE0817190721F48C819D8103962ECFC0
:10207000EC81FD813296E4912C813D812E0F311D42
:102080003D832C83E2CF9401240D311D47FC3A950A
:10209000BC01650D711D57FC7A958B01AC01B40133
:1020A000C6010E94A009882399F1EF81F885168264
:1020B00017824701F3E78F0E911C24E7E20EF11C13
:1020C000F40160818F8198850E94CA0B082FF70167
:1020D00060818F8198850E94CA0B182F40E0602F85
:1020E000C6010E946A0B41E0612FC6010E946A0B83
:1020F00061E08F8198850E94CA0B8111EFCFEF813B
:10210000F88587818515E4F28485EC81FD818083E3
:10211000FE818F2FFF0F990B73CE0519110957FC04
:10212000139594012F5F3F4FBC01640D711D47FC57
:102130007A95800E911EB1CFA8014419510947FC30
:10214000539594012F5F3F4F0519110957FC1395C3
:10215000BC016F5F7F4F800F911F840E951E9DCF36
:102160009401250D311D57FC3A950419110947FCBE
:102170001395BC016F5F7F4F800F911F8ECFF501CC
:1021800020813181820F931F9183808347CEF30199
:10219000F7CFF50120813181281B390B3183208352
:1021A0003DCEF301F7CF089590E080E008950F93BE
:1021B0001F93CF93DF93EC0188819981009759F0A9
:1021C0002A813B812617370730F081E0DF91CF91DC
:1021D0001F910F9108958B016F5F7F4F0E947A1DB1
:1021E000009759F0998388831B830A832C813D8152
:1021F000232B59F7FC011082E8CF80E0E7CFCF9383
:10220000DF93EC0188819981009711F00E94F11C05
:10221000198218821D821C821B821A82DF91CF9143
:1022200008950F931F93CF93DF93EC010C811D81D1
:102230000F5F1F4FB8010E94D710882391F02881AB
:1022400039818C819D8161EA71E0820F931F0E9428
:10225000471E1D830C83CE01DF91CF911F910F91FB
:102260000895CE010E94FF10F6CFEF92FF920F93D8
:102270001F93CF93DF93EC017B01198218821B829D
:102280001A821D821C82FB0101900020E9F7319720
:102290008F01061B170BB8010E94D710811109C0CE
:1022A000CE01DF91CF911F910F91FF90EF900C9491
:1022B000FF101D830C83B70188819981DF91CF9135
:1022C0001F910F91FF90EF900C94471ECF92DF92D9
:1022D000EF92FF920F931F93CF93DF93CDB7DEB7AB
:1022E000A1970FB6F894DEBF0FBECDBF7C01CB0126
:1022F000BA01F701118210821382128215821482B0
:102300008E010F5F1F4F22E044E00E9487176C018F
:10231000009771F0FC0101900020E9F731978F01DF
:10232000081B190BB801C7010E94D710811112C0F8
:10233000C7010E94FF10A1960FB6F894DEBF0FBE32
:10234000CDBFDF91CF911F910F91FF90EF90DF9064
:10235000CF900895F70115830483B60180819181A0
:102360000E94471EE8CFEF92FF920F931F93CF93E7
:10237000DF93EC01FB01E080F180E114F10411F145
:102380000481158101151105A9F08C819D81080F2B
:10239000191FB801CE010E94D710882399F0288117
:1023A00039818C819D81B701820F931F0E94471E46
:1023B0001D830C83CE01DF91CF911F910F91FF9070
:1023C000EF900895CE010E94FF10F4CFFC018081B0
:1023D0009181009711F00C94F11C089585ED809384
:1023E000BC0080913E0290913F02A0914002B091CA
:1023F00041020796A11DB11D23E0B695A7959795BB
:1024000087952A95D1F72091BC0024FD03C0109236
:102410008B02089540913E0250913F02609140022C
:1024200070914102452B462B472B69F30097A1057C
:10243000B10541F02AE22A95F1F700C00197A10900
:10244000B109E1CF80913D020C94AF06FC01A0815F
:10245000B18150962C9182AD38E0839FC001112448
:10246000289FA001299F500D112470E060E080ADED
:1024700091AD0C94401E1F920F920FB60F92112433
:102480002F933F938F939F93AF93BF938091BA0203
:102490009091BB02A091BC02B091BD023091B902F3
:1024A00023E0230F2D3758F50196A11DB11D209370
:1024B000B9028093BA029093BB02A093BC02B0937E
:1024C000BD028091BE029091BF02A091C002B09166
:1024D000C1020196A11DB11D8093BE029093BF025F
:1024E000A093C002B093C102BF91AF919F918F9111
:1024F0003F912F910F900FBE0F901F90189526E8D7
:10250000230F0296A11DB11DD2CF1F920F920FB6BD
:102510000F9211242F933F934F935F936F937F9369
:102520008F939F93AF93BF93EF93FF9382EC92E0CF
:102530000E94DB05FF91EF91BF91AF919F918F9129
:102540007F916F915F914F913F912F910F900FBEAF
:102550000F901F9018951F920F920FB60F92112493
:102560002F938F939F93EF93FF93E091D202F0917B
:10257000D3028081E091D802F091D90282FD1BC084
:1025800090818091DB028F5F8F732091DC02821734
:1025900041F0E091DB02F0E0EE53FD4F958F809328
:1025A000DB02FF91EF919F918F912F910F900FBEC2
:1025B0000F901F9018958081F4CF1F920F920FB645
:1025C0000F9211242F933F934F935F936F937F93B9
:1025D0008F939F93AF93BF93EF93FF938091B90035
:1025E000887F803609F44AC0F0F5883209F4A7C024
:1025F00018F5803109F49BC0B8F4882309F4F9C0B8
:10260000883009F494C0FF91EF91BF91AF919F91F1
:102610008F917F916F915F914F913F912F910F908B
:102620000FBE0F901F901895883109F488C0803232
:1026300051F780938A0214C0803409F49DC040F49D
:102640008033B9F38833F9F680938A0285ECB0C001
:10265000803509F485C0883509F496C0883499F628
:102660000E94EE11D0CF883909F48CC038F5883734
:1026700029F050F4883611F0803729F683E08093F2
:102680008B021092890257C0883809F47BC08039C8
:1026900019F0803809F0B7CF80918902803208F0B4
:1026A00071C0E091890281E08E0F80938902809150
:1026B000BB00F0E0E759FD4F80833DC0803B39F01F
:1026C000E0F4803A09F479C0883A09F09CCF84E0BC
:1026D00080938B021092660210926502E091630271
:1026E000F091640209958091650281110FC081E02B
:1026F000809365021092430209C0803C09F4A6CF82
:10270000883C09F4A3CF883B09F07DCFE0916602B5
:1027100081E08E0F80936602F0E0ED5BFD4F8081DB
:102720008093BB00909166028091650229C08091E0
:10273000B0028093BB0085EC8093BC0064CF909185
:10274000AF028091AE02981758F5E091AF0281E098
:102750008E0F8093AF02F0E0E257FD4F8081E9CF0A
:10276000E091AF0281E08E0F8093AF028091BB00B9
:10277000F0E0E257FD4F80839091AF028091AE026E
:102780009817C8F285E8D8CFE091AF0281E08E0FAC
:102790008093AF028091BB00F0E0E257FD4F808351
:1027A00080918D0281115CCF81E080938C0284EA5C
:1027B0008093BC0010928B0226CF85EC8093BC00E6
:1027C00010928B0280918902803230F4E09189026C
:1027D000F0E0E759FD4F10826091890270E0E091CE
:1027E0006702F091680289E692E0099510928902E9
:1027F0000ACF10928A0234CFCF931092C502109262
:10280000C40288EE93E0A0E0B0E08093C60290930B
:10281000C702A093C802B093C9022FE631E03093FB
:10282000C3022093C20225EC30E03093CF02209304
:10283000CE0224EC30E03093D1022093D00220EC81
:1028400030E03093D3022093D20221EC30E0309379
:10285000D5022093D40222EC30E03093D7022093AB
:10286000D60226EC30E03093D9022093D8021092A1
:10287000DB021092DC021092DD021092DE02109256
:102880006203109261038093630390936403A093A7
:102890006503B093660381E891E0909360038093B1
:1028A0005F0310926E0710926D0785E194E090939C
:1028B000FC078093FB071092FE071092FD07109211
:1028C00000081092FF071092870783E991E0909328
:1028D0006C0780936B071092700710926F0710922D
:1028E000840710927B0710927C0710927D0710924C
:1028F0007E078FEF8093850780938907EDE8F7E0E7
:1029000083EA97E0CFEFC1938E179F07E1F78FED32
:1029100097E0909374078093730784ED98E0909309
:102920007607809375078DE59CE0909378078093F8
:1029300077078EE99DE090937A078093790730E0DE
:1029400020E040E069E08FE697E00E94DF07109208
:10295000CA071092C9078FE194E09093A40780936F
:10296000A3078BE693E09093A8078093A70788E0DE
:102970008093A9071092AA071092D8071092F8071F
:102980001092F40781E08093F9078093FA078BE9AE
:1029900091E09093A6078093A5078FE697E00E94A9
:1029A0004E091092C2071092C1071092C6071092EA
:1029B000C5078FEF9FEF9093C4078093C307909351
:1029C000C8078093C707E091A507F091A60702808A
:1029D000F381E02D8FE697E009958EE894E09093DF
:1029E000CC078093CB071092DB07C0939807C09366
:1029F0009907C0939A07CF910895CF93DF93CDB7EE
:102A0000DEB72C970FB6F894DEBF0FBECDBF78941B
:102A100084B5826084BD84B5816084BD85B58260E3
:102A200085BD85B5816085BD80916E008160809394
:102A30006E001092810080918100826080938100FD
:102A4000809181008160809381008091800081600D
:102A5000809380008091B10084608093B100809168
:102A6000B00081608093B00080917A008460809390
:102A70007A0080917A00826080937A0080917A0057
:102A8000816080937A0080917A00806880937A00D8
:102A90001092C100E091D202F091D30282E08083D3
:102AA000E091CE02F091CF021082E091D002F0913D
:102AB000D1028FEC80831092DA02E091D602F0917D
:102AC000D70286E08083E091D402F091D502808124
:102AD00080618083E091D402F091D502808188608A
:102AE0008083E091D402F091D50280818068808358
:102AF000E091D402F091D50280818F7D8083E091B6
:102B00007307F091740730E020E040E06AE08FE660
:102B100097E009958091FA07882321F08FE697E0E6
:102B20000E94261280E00E9491048FE697E00E94A6
:102B3000010C1091AA078091A907180FE0916F0767
:102B4000F09170078189181708F4BCC18FE697E0EF
:102B50000E945F0780E00E949104E0917307F0916A
:102B6000740730E020E040E06BE08FE697E00995E5
:102B70000CEB11E044244A9433E0532E612C712C69
:102B800083EC282E81E0382E94ECA92E91E0B92E0A
:102B900025EC822E21E0922E8091C9079091CA07E0
:102BA0008C5B914009F492C01093CA070093C90747
:102BB000ECEBF1E084918093DC07EDEBF1E08491A4
:102BC0008093DD07EEEBF1E084918093DE07EFEB7D
:102BD000F1E084918093DF07E0ECF1E08491809351
:102BE000E007E1ECF1E084918093E107E2ECF1E0B1
:102BF00084918093E207F10184918093E307F501CA
:102C000084918093E407F40184918093E507E6ECD6
:102C1000F1E0E491E093E607E7ECF1E0E491E09382
:102C2000E707E8ECF1E0E491E093E807E9ECF1E094
:102C3000E491E093E907EAECF1E0E491E093EA073C
:102C4000EBECF1E0E491E093EB07ECECF1E0E491E4
:102C5000E093EC0761E18CEB91E00E94F50B90931F
:102C6000EE078093ED0763E18CEB91E00E94F50B9A
:102C70009093F0078093EF0765E18CEB91E00E9461
:102C8000F50B9093F2078093F1078091C90790911B
:102C9000CA07892BD9F08091E9078093F507409105
:102CA000EA074093F6079091F407992379F0913061
:102CB00009F012C19091EB07891714F49093F5076E
:102CC0008091EC07841714F48093F6078FE697E061
:102CD0000E9426128AE090E09093FE078093FD0701
:102CE0008FE090E0909300088093FF074CE050E065
:102CF00063EA71E08BE697E00E94500E80E48093D7
:102D00007C0080917A00806480937A0080917A00C0
:102D100086FDFCCFA0917800B091790025E030E0ED
:102D20000E94481CA30192010E94D71ACA01B9014E
:102D30000E94DE1920E030E040E250E40E94191ABF
:102D40006B017C01C092B502D092B602E092B7024C
:102D5000F092B802AC019B0164E076E58AE091E470
:102D60000E94691B6093B1027093B2028093B30218
:102D70009093B4021092FE071092FD078EE190E04E
:102D8000909300088093FF07B701A601CE0101963A
:102D90000E94661160EB71E0CE0107960E9435112A
:102DA000BE016F5F7F4FCE0107960E94B3110E9454
:102DB00011110E94780ECE0107960E94E611CE01F5
:102DC00001960E94E61124E036E54AE051E4609164
:102DD000B5027091B6028091B7029091B8020E943C
:102DE000691B28E539E344EB5CEB0E94D61BAB0181
:102DF000BC011092FE071092FD078DE290E09093C7
:102E000000088093FF07CE0101960E9466116CEBCB
:102E100071E0CE0107960E943511BE016F5F7F4FB2
:102E2000CE0107960E94B3110E94780ECE0107963C
:102E30000E94E611CE0101960E94E6111092FE0753
:102E40001092FD078CE390E0909300088093FF07B9
:102E50004091B1025091B2026091B3027091B402FC
:102E6000CE0101960E94661167EC71E0CE010796D3
:102E70000E943511BE016F5F7F4FCE0107960E9401
:102E8000B3110E9411110E94780ECE0107960E9484
:102E9000E611CE0101960E94E6118FE697E00E94AE
:102EA000010C8FE697E00E945F0780E090E0892B9D
:102EB00009F472CE0E94C705882309F461CE0E94EE
:102EC000000058CE8091FA07882321F08FE697E022
:102ED0000E942612812F27CE3091E6072091E80725
:102EE000082E000C990B622F022E000C770B630F3B
:102EF000711D37FD7A95861797071CF4320F3093B2
:102F0000F50724170CF0E2CE2093F607DFCEEF9200
:102F10000F931F93CF93DF93E80134E047FD34E133
:102F2000042E000C550B57FF03C0519541955109D4
:102F3000E32E022F242FAE010E94A517CE01DF91B0
:102F4000CF911F910F91EF900895A9E0B0E0EBEAC7
:102F5000F7E10C94071B6A01F22EB02E102FFBE351
:102F6000AF2EA01608F41BE31F5F012F27E0AE0170
:102F70004F5F5F4F0E940419BC018981982F99709F
:102F8000913009F43FC09BE2E1FC04C09E2D91709A
:102F9000E0FC3AC05E2D5071E82FE87083FF46C018
:102FA00084E0911101C083E0EF2DE81B8F1508F03C
:102FB000E0E0D6018E2F20E2552351F1992329F02C
:102FC000D6019C93C60101966C0196012D5F3F4F7F
:102FD000E2FE24C08EE4D6018C9391E411969C937A
:102FE000119712968C93D9018E2F90E281111BC0FC
:102FF000E20FF32FF11D10828EEF9FEF2996ECE088
:103000000C94231B9DE2C6CF90E2C4CF2D93815038
:103010008111FCCFCE0ED11CE0E0D0CF8EE6D601E0
:103020008C9391E6DBCF9D938150E0CF482F447085
:1030300082FF3DC084E0911101C083E08F1510F440
:10304000EF2DE81BD6018E2F20E2552309F199239D
:1030500029F0D6019C93C60101966C0196012D5F63
:103060003F4FE2FE1BC089E4D6018C938EE411969B
:103070008C93119786E412968C93D9018E2F90E24F
:10308000882309F4B5CF9D938150FACF2D938150B9
:103090008111FCCFCE0ED11CE0E0D9CF89E6D6015C
:1030A0008C938EE611968C93119786E6E4CF9B0164
:1030B00077FF02C030E020E0A1E0B0E0911102C053
:1030C000B0E0A0E0F9013196AE0FBF1F8B2C912C20
:1030D000BB2009F461C05401EFEFAE1ABE0AAA0D7D
:1030E000BB1DFA161B0619F014F04F2D4A1B511187
:1030F00088C0E3FC59C07601A42FB0E2A1114FC0F3
:10310000C40ED11C992309F45BC040E0D60111968E
:10311000F60190836D01552309F448C0012F060F75
:103120009A81582F507184FF03C0913309F40150E4
:1031300010160CF047C0093008F008E0EEE2FE2E51
:103140005B01A01AB10885019194819491082F3FE9
:10315000320729F4D601FC92F60131966F0162170D
:10316000730794F1021713077CF5DB01A21BB30B65
:10317000AA24A394B12CAC0EBD1EAA0DBB1D1196A2
:103180008C9121503109D601119628153905F4F09A
:10319000F60180836D01DBCFB12CA12CA0CFF7010C
:1031A000B1937F01A150AACF9111B0CFD601942F36
:1031B00050E302C05D9391509111FCCFC40ED11C1D
:1031C00040E0ACCF01E0BACF80E3DBCF62177307FA
:1031D00031F4963388F4953311F4552369F0F601F0
:1031E0008083FD01842F90E2811108C0A40FB11DDE
:1031F0001C9290E080E002CF81E3F1CF9193815067
:10320000F3CF911183CF8ACF283008F027E03327FE
:10321000DA01990F311D87FD9160009661057105F6
:1032200039F432602E5F3D9330E32A95E1F708953B
:103230009F3F30F080387105610509F03C5F3C5FCD
:103240003D93913008F08068911DDF93CF931F93D9
:103250000F93FF92EF92192F987F9695E92F9695ED
:103260009695E90FFF27EE53FF4F99273327EE245A
:10327000FF24A701E70105900894079428F4360F6E
:10328000E71EF81E491F511D660F771F881F991FE3
:103290000694A1F70590079428F4E70EF81E491F3D
:1032A000561FC11D770F881F991F661F0694A1F72F
:1032B0000590079428F4F80E491F561FC71FD11D0B
:1032C000880F991F661F771F0694A1F70590079432
:1032D00020F4490F561FC71FD81F990F661F771F6D
:1032E000881F0694A9F784911095177041F0D69520
:1032F000C79557954795F794E7941A95C1F7E8E66F
:10330000F0E068941590159135916591959105902F
:103310007FE27395E118F10A430B560BC90BD009F4
:10332000C0F7E10CF11E431F561FC91FD01D7EF4CC
:10333000703311F48A95E6CFE894015030F0080F0D
:103340000AF40027021708F4202F2395022F7A335E
:1033500028F079E37D932A95E9F710C07D932A95AB
:1033600089F6069497956795379517951794E11800
:10337000F10A430B560BC90BD00998F023957E91A7
:1033800073957A3308F070E37C932013B8F77E913D
:1033900070617D9330F0839571E37D9370E32A959E
:1033A000E1F71124EF90FF900F911F91CF91DF91E2
:1033B000992787FD90950895E89409C097FB3EF4FE
:1033C00090958095709561957F4F8F4F9F4F992372
:1033D000A9F0F92F96E9BB279395F69587957795F0
:1033E0006795B795F111F8CFFAF4BB0F11F460FFB0
:1033F0001BC06F5F7F4F8F4F9F4F16C0882311F008
:1034000096E911C0772321F09EE8872F762F05C01B
:10341000662371F096E8862F70E060E02AF09A95B6
:10342000660F771F881FDAF7880F9695879597F9AB
:1034300008950E942C1A0C949D1A0E948F1A38F03D
:103440000E94961A20F0952311F00C94861A0C9481
:103450008C1A11240C94D11A0E94AE1A70F3959F05
:10346000C1F3950F50E0551F629FF001729FBB277B
:10347000F00DB11D639FAA27F00DB11DAA1F649F17
:103480006627B00DA11D661F829F2227B00DA11DCA
:10349000621F739FB00DA11D621F839FA00D611D50
:1034A000221F749F3327A00D611D231F849F600D71
:1034B000211D822F762F6A2F11249F5750409AF09A
:1034C000F1F088234AF0EE0FFF1FBB1F661F771F26
:1034D000881F91505040A9F79E3F510580F00C94F1
:1034E000861A0C94D11A5F3FE4F3983ED4F3869584
:1034F00077956795B795F795E7959F5FC1F7FE2B91
:10350000880F911D9695879597F9089597F99F676C
:1035100080E870E060E008959FEF80EC089500245B
:103520000A941616170618060906089500240A9428
:1035300012161306140605060895092E0394000CAE
:1035400011F4882352F0BB0F40F4BF2B11F460FF3D
:1035500004C06F5F7F4F8F4F9F4F089557FD905866
:10356000440F551F59F05F3F71F04795880F97FB47
:10357000991F61F09F3F79F0879508951216130601
:103580001406551FF2CF4695F1DF08C01616170630
:103590001806991FF1CF8695710561050894089565
:1035A000E894BB2766277727CB0197F90895052E66
:1035B00097FB1EF400940E94EE1A57FD07D00E945C
:1035C000381B07FC03D04EF40C94EE1A509540952E
:1035D000309521953F4F4F4F5F4F089590958095BF
:1035E000709561957F4F8F4F9F4F08950E945A1B92
:1035F000A59F900DB49F900DA49F800D911D112447
:1036000008952F923F924F925F926F927F928F9286
:103610009F92AF92BF92CF92DF92EF92FF920F9361
:103620001F93CF93DF93CDB7DEB7CA1BDB0B0FB66B
:10363000F894DEBF0FBECDBF09942A883988488828
:103640005F846E847D848C849B84AA84B984C884BE
:10365000DF80EE80FD800C811B81AA81B981CE0FB5
:10366000D11D0FB6F894DEBF0FBECDBFED0108959A
:10367000A1E21A2EAA1BBB1BFD010DC0AA1FBB1F76
:10368000EE1FFF1FA217B307E407F50720F0A21BE8
:10369000B30BE40BF50B661F771F881F991F1A9455
:1036A00069F760957095809590959B01AC01BD017F
:1036B000CF010895A29FB001B39FC001A39F700DD9
:1036C000811D1124911DB29F700D811D1124911D2A
:1036D00008955058BB27AA270E94811B0C949D1A5D
:1036E0000E948F1A38F00E94961A20F039F49F3FFA
:1036F00019F426F40C948C1A0EF4E095E7FB0C9464
:10370000861AE92F0E94AE1A58F3BA176207730798
:103710008407950720F079F4A6F50C94D01A0EF4DE
:10372000E0950B2EBA2FA02D0B01B90190010C01D1
:10373000CA01A0011124FF27591B99F0593F50F4E9
:10374000503E68F11A16F040A22F232F342F442741
:10375000585FF3CF469537952795A795F040539539
:10376000C9F77EF41F16BA0B620B730B840BBAF009
:103770009150A1F0FF0FBB1F661F771F881FC2F774
:103780000EC0BA0F621F731F841F48F48795779588
:103790006795B795F7959E3F08F0B0CF9395880F42
:1037A00008F09927EE0F9795879508950E94EA1BD8
:1037B0000C949D1A0E94961A58F00E948F1A40F09D
:1037C00029F45F3F29F00C94861A51110C94D11AF8
:1037D0000C948C1A0E94AE1A68F39923B1F3552306
:1037E00091F3951B550BBB27AA2762177307840714
:1037F00038F09F5F5F4F220F331F441FAA1FA9F3AA
:1038000035D00E2E3AF0E0E832D091505040E69597
:10381000001CCAF72BD0FE2F29D0660F771F881FF8
:10382000BB1F261737074807AB07B0E809F0BB0BEB
:10383000802DBF01FF2793585F4F3AF09E3F5105FF
:1038400078F00C94861A0C94D11A5F3FE4F3983EFA
:10385000D4F3869577956795B795F7959F5FC9F7E8
:10386000880F911D9695879597F90895E1E0660F69
:10387000771F881FBB1F621773078407BA0720F0E2
:10388000621B730B840BBA0BEE1F88F7E09508954B
:103890000E945A1BB7FF0895821B930B0895EE0FE9
:1038A000FF1F0590F491E02D09940F931F93CF9380
:1038B000DF938230910510F482E090E0E0910308FC
:1038C000F091040830E020E0B0E0A0E0309799F4F7
:1038D0002115310509F44AC0281B390B2430310564
:1038E000D8F58A819B816115710589F1FB0193836C
:1038F0008283FE0111C040815181028113814817EA
:103900005907E0F04817590799F4109761F012969B
:103910000C93129713961C933296CF01DF91CF919F
:103920001F910F9108950093030810930408F4CF9A
:103930002115310551F04217530738F0A901DB0179
:103940009A01BD01DF01F801C1CFEF01F9CF9093DA
:10395000040880930308CDCFFE01E20FF31F81938B
:1039600091932250310939832883D7CF20910108C0
:1039700030910208232B41F4209102013091030180
:103980003093020820930108209100013091010139
:103990002115310541F42DB73EB7409104015091F6
:1039A0000501241B350BE0910108F0910208E21794
:1039B000F307A0F42E1B3F0B2817390778F0AC0152
:1039C0004E5F5F4F2417350748F04E0F5F1F50932F
:1039D000020840930108819391939FCFF0E0E0E0CB
:1039E0009CCFCF93DF930097E9F0FC0132971382CD
:1039F0001282A0910308B0910408ED0130E020E0AC
:103A00001097A1F420813181820F931F209101082A
:103A1000309102082817390709F061C0F0930208B5
:103A2000E0930108DF91CF910895EA01CE17DF07F7
:103A3000E8F54A815B819E0141155105B1F7E90125
:103A4000FB83EA8349915991C40FD51FEC17FD07F9
:103A500061F4808191810296840F951FE901998319
:103A60008883828193819B838A83F0E0E0E01296D1
:103A70008D919C9113970097B9F52D913C911197D9
:103A8000CD010296820F931F209101083091020808
:103A90002817390739F6309751F51092040810921B
:103AA0000308B0930208A0930108BCCFD383C2835C
:103AB00040815181840F951FC817D90761F44E5F6B
:103AC0005F4F88819981480F591F518340838A81B4
:103AD0009B81938382832115310509F0B0CFF09348
:103AE0000408E09303089ECFFD01DC01C0CF1382E0
:103AF0001282D7CFB0E0A0E0E0E8FDE10C94031B18
:103B00008C01009751F4CB010E94551C8C01C80117
:103B1000CDB7DEB7E0E10C941F1BFC01E60FF71FE9
:103B20009C0122503109E217F30708F49DC0D90126
:103B3000CD91DC911197C617D70798F0C530D10504
:103B400030F3CE0104978617970708F3C61BD70BEF
:103B50002297C193D1936D937C93CF010E94F11C66
:103B6000D6CF5B01AC1ABD0A4C018C0E9D1EA091F4
:103B70000308B0910408512C412CF12CE12C109732
:103B800031F580910108909102088815990509F096
:103B90005CC04616570608F058C08091000190910D
:103BA0000101009741F48DB79EB7409104015091F7
:103BB0000501841B950BE817F90708F055C0F09331
:103BC0000208E0930108F90171836083A0CF8D9111
:103BD0009C91119712966C90129713967C90139764
:103BE000A815B90559F56C0142E0C40ED11CCA14E0
:103BF000DB0420F1AC014A195B09DA011296159732
:103C000080F06282738251834083D9016D937C93EB
:103C1000E114F10471F0D7011396FC93EE9312971F
:103C200076CF22968C0F9D1FF90191838083F3013B
:103C3000EFCFF0930408E093030869CF48165906C4
:103C400008F42C017D01D3019ACFCB010E94551CB1
:103C50007C01009749F0AE01B8010E94371EC801EF
:103C60000E94F11C870153CF10E000E050CFFB0110
:103C7000DC0102C001900D9241505040D8F70895E8
:103C8000DC0101C06D9341505040E0F70895FB0105
:103C9000DC0101900D920020E1F70895F894FFCF28
:103CA0000000050880001815A015C019FF1815A1FF
:103CB00015C819FF1815AE19FF1815AF19FF1815FB
:103CC000AE15D5168015A8163F15D316001540154C
:103CD0008D16141520160015A115C815DA16121523
:103CE0008116CF15D916F115DB1640152E15A41522
:103CF000A619FF0001140A6464323200127A00002F
:103D0000042896100800008000400000000000FD1C
:103D1000055D058A054A06BB059905AD050000004D
:103D2000002907FC06D410D206F506E206D30600E9
:103D3000000000810E500ED410D3104E09D9093E58
:103D40000956004D65737572657320286D6D2900E5
:103D5000496E707574202020203A20004E697665E7
:103D6000617520203A2000566F6C74616765203AB7
:023D7000200031
:00000001FF
